:100000000C942A000C9434000C9434000C943400AA
:100010000C9434000C9434000C9434000C94340090
:100020000C9434000C9434000C9434000C94340080
:100030000C9434000C9434000C9434000C94340070
:100040000C9434000C9434000C9434000C94340060
:100050000C94340011241FBECFE5D8E0DEBFCDBF25
:100060000E9436000C9405020C9400000F931F931D
:10007000CF93DF9380E06FEF0E94E301C0E0D0E018
:1000800009E110E00DC080E06C2F41E00E946100AA
:1000900088E59BE1F8013197F1F70197D9F72196AF
:1000A000C830D10584F380E060E00E94F40188E864
:1000B00093E1F8013197F1F70197D9F7C0E0D0E06B
:1000C000EFCF843008F075C0683008F072C041305E
:1000D000B1F5813099F0813030F08230D1F0833049
:1000E00009F067C021C02BB381E090E002C0880F07
:1000F000991F6A95E2F7282B2BBB089528B381E05E
:1001000090E002C0880F991F6A95E2F7282B28BB60
:10011000089525B381E090E002C0880F991F6A9589
:10012000E2F7282B25BB089522B381E090E002C0BE
:10013000880F991F6A95E2F7282B22BB0895442364
:10014000C1F5813099F0813028F08230D9F08330C8
:1001500081F524C02BB381E090E002C0880F991F85
:100160006A95E2F7809582238BBB089528B381E0DE
:1001700090E002C0880F991F6A95E2F7809582236C
:1001800088BB089525B381E090E002C0880F991FD5
:100190006A95E2F78095822385BB089522B381E0BA
:1001A00090E002C0880F991F6A95E2F7809582233C
:1001B00082BB0895843008F075C0683008F072C0C2
:1001C0004F3FB1F5813099F0813030F08230D1F07D
:1001D000833009F067C021C02AB381E090E002C0FB
:1001E000880F991F6A95E2F7282B2ABB089527B339
:1001F00081E090E002C0880F991F6A95E2F7282BF2
:1002000027BB089524B381E090E002C0880F991FB6
:100210006A95E2F7282B24BB089521B381E090E092
:1002200002C0880F991F6A95E2F7282B21BB089519
:100230004423C1F5813099F0813028F08230D9F023
:10024000833081F524C02AB381E090E002C0880F9A
:10025000991F6A95E2F7809582238ABB089527B398
:1002600081E090E002C0880F991F6A95E2F78095BF
:10027000822387BB089524B381E090E002C0880FF9
:10028000991F6A95E2F78095822384BB089521B374
:1002900081E090E002C0880F991F6A95E2F780958F
:1002A000822381BB08958430B0F56830A0F5813099
:1002B00091F0813028F08230C9F0833061F521C09F
:1002C0002BB381E090E002C0880F991F6A95E2F796
:1002D00028272BBB089528B381E090E002C0880F47
:1002E000991F6A95E2F7282728BB089525B381E076
:1002F00090E002C0880F991F6A95E2F7282725BB76
:10030000089522B381E090E002C0880F991F6A959A
:10031000E2F7282722BB08958430B0F56830A0F5B5
:10032000813091F0813028F08230C9F0833061F55E
:1003300021C02BB381E090E002C0880F991F6A951D
:10034000E2F7282B2BBB089528B381E090E002C090
:10035000880F991F6A95E2F7282B28BB089525B3CB
:1003600081E090E002C0880F991F6A95E2F7282B80
:1003700025BB089522B381E090E002C0880F991F49
:100380006A95E2F7282B22BB08958430D0F46830B8
:10039000C0F4813049F0813028F0823039F0833068
:1003A00089F406C08BB305C088B303C085B301C010
:1003B00082B390E002C0959587956A95E2F78170C7
:1003C00008958FEF0895813049F0813028F0823010
:1003D00039F0833041F406C06ABB089567BB0895C5
:1003E00064BB089561BB0895813049F0813028F0E5
:1003F000823039F0833041F406C06BBB089568BB8E
:0E040000089565BB089562BB0895F894FFCF80
:00000001FF
